:100000000C9462000C948A000C948A000C948A0070
:100010000C948A000C948A000C948A000C948A0038
:100020000C948A000C948A000C948A000C948A0028
:100030000C948A000C948A000C948A000C948A0018
:100040000C94C1030C948A000C9425070C94570758
:100050000C948A000C948A000C948A000C948A00F8
:100060000C948A000C948A00000000080002010031
:100070000003040700000000000000000102040863
:100080001020408001020408102001020408102002
:10009000040404040404040402020202020203032E
:1000A00003030303000000002300260029000000D2
:1000B0000000250028002B0000000000240027007D
:1000C0002A00870711241FBECFEFD8E0DEBFCDBFC7
:1000D00011E0A0E0B1E0E4E6F5E102C005900D9288
:1000E000A634B107D9F722E0A6E4B1E001C01D9221
:1000F000A630B207E1F710E0C4ECD0E004C02297CC
:10010000FE010E94AC0AC23CD107C9F70E94C50893
:100110000C94B00A0C940000CF93DF9360ED77E06D
:1001200080E090E00E942E0426E040E855E260E086
:1001300070E089E691E00E94C30662E080912201AE
:100140000E94480561E0809120010E94480561E01D
:1001500080911E010E94480561E080911C010E946F
:10016000480561E080911A010E94480561E0809194
:1001700014010E94480561E0809112010E94480527
:1001800061E0809118010E94480561E080911601AC
:100190000E944805809122010E94B705EC01219739
:1001A000E1F4809122010E94B705EC016FEF80918C
:1001B00014010E9481056CE271E080E090E00E94F1
:1001C0002E0460E0809114010E9481056CE271E0D0
:1001D00080E090E00E942E04E2CFDF91CF9108955D
:1001E0004F925F926F927F928F929F92AF92BF9247
:1001F000CF92DF92EF92FF920F931F93CF93DF93F3
:1002000000D000D0CDB7DEB761E0809112010E942E
:10021000810580915E010E94A3046C018091100110
:100220000E94A3047C0180910E010E94A3045C0142
:1002300080910C010E94A304BC0141E050E08DE2DA
:10024000C81681E0D80614F440E050E021E030E028
:10025000EDE2EE16E1E0FE0614F420E030E0220FBD
:10026000331F240F351F41E050E0F1E4AF16F1E0F9
:10027000BF0614F440E050E0440F551F440F551FD3
:10028000420F531F21E030E0653581E0780714F418
:1002900020E030E083E0220F331F8A95E1F7240F3E
:1002A000351F30935501209354012F30310521F033
:1002B00030935301209352014AE050E089E691E0E7
:1002C0000E94AC080091540110915501B801695089
:1002D0007109882777FD8095982F0E9471096B011D
:1002E0007C0160935A0170935B0180935C01909351
:1002F0005D014090560150905701609058017090F8
:10030000590120914E0130914F014091500150917F
:100310005101C301B2010E94D6084B015C016093F8
:100320004E0170934F018093500190935101A301AE
:100330009201C701B6010E94D5082B013C016093D0
:100340004A0170934B0180934C0190934D01209191
:1003500008013091090140910A0150910B01C70138
:10036000B6010E94250A69837A838B839C8320913E
:100370000001309101014091020150910301C5013A
:10038000B4010E94250A9B01AC0169817A818B81AD
:100390009C810E94D60869837A838B839C832091F9
:1003A0000401309105014091060150910701C301FC
:1003B000B2010E94250A9B01AC0169817A818B817F
:1003C0009C810E94D60860934601709347018093F8
:1003D00048019093490120E030E048E453E4C5012E
:1003E000B4010E94210A181664F480E090E0A8E4A9
:1003F000B3E480934E0190934F01A0935001B093CA
:10040000510120E030E048E453EC60914E017091DE
:100410004F0180915001909151010E943A0987FF4C
:100420000CC080E090E0A8E4B3EC80934E01909380
:100430004F01A0935001B0935101C0925601D09248
:100440005701E0925801F09259010930110501F568
:1004500061E0809120010E94810560E080911C0193
:100460000E9481056FEF70E0809116010E94C00428
:1004700061E080911E010E94810560E080911A0177
:100480000E9481056FEF70E0809118010E94C00406
:100490008091540190915501089771F561E0809128
:1004A00020010E94810560E080911C010E9481056D
:1004B0006FEF70E0809116010E94C00460E08091AF
:1004C0001E010E94810561E080911A010E94810550
:1004D00020E030E040EF52E4609146017091470126
:1004E00080914801909149010E94D6080E943E09DE
:1004F000809118010E94C00480915401909155018F
:100500009C012D7F2C30310519F008970CF0A0C00C
:1005100020E030E0A901609146017091470180918F
:100520004801909149010E943A0987FF2EC060E07E
:10053000809120010E94810561E080911C010E9450
:10054000810520E030E040EF52E460914601709177
:10055000470180914801909149010E94D6080E946C
:100560003E09809116010E94C00461E080911E0145
:100570000E94810560E080911A010E9481056FEF61
:1005800070E0809118010E94C00420E030E0A901D1
:100590006091460170914701809148019091490115
:1005A0000E94210A181674F561E0809120010E94D2
:1005B000810560E080911C010E9481056FEF70E071
:1005C000809116010E94C00460E080911E010E948B
:1005D000810561E080911A010E9481052091460108
:1005E00030914701409148015091490160E070E02D
:1005F00080EF92E40E94D5080E943E098091180184
:100600000E94C0048091540190915501892B01F5FD
:1006100060E0809120010E94810560E080911C01D2
:100620000E94810560E070E0809116010E94C00484
:1006300060E080911E010E94810560E080911A01B6
:100640000E94810560E070E0809118010E94C00462
:1006500080915401909155010F9709F07DC08091D0
:10066000520190915301099774F560E08091200147
:100670000E94810561E080911C010E94810520910A
:10068000460130914701409148015091490160E095
:1006900070E080EF92E40E94D5080E943E098091AC
:1006A00016010E94C00461E080911E010E94810534
:1006B00060E080911A010E9481056FEF70E08091E7
:1006C00018010E94C00480915201909153010A9731
:1006D0000CF442C061E0809120010E94810560E03D
:1006E00080911C010E9481056FEF70E080911601DE
:1006F0000E94C00460E080911E010E94810561E0BB
:1007000080911A010E948105209146013091470194
:10071000409148015091490160E070E080EF92E41F
:100720000E94D5080E943E09809118010F900F90F9
:100730000F900F90DF91CF911F910F91FF90EF904D
:10074000DF90CF90BF90AF909F908F907F906F90F1
:100750005F904F900C94C0040F900F900F900F90EB
:10076000DF91CF911F910F91FF90EF90DF90CF908D
:10077000BF90AF909F908F907F906F905F904F90C1
:1007800008951F920F920FB60F9211242F933F934B
:100790008F939F93AF93BF9380916101909162017A
:1007A000A0916301B09164013091600123E0230FB7
:1007B0002D3720F40196A11DB11D05C026E8230F99
:1007C0000296A11DB11D2093600180936101909359
:1007D0006201A0936301B0936401809165019091DF
:1007E0006601A0916701B09168010196A11DB11D3C
:1007F0008093650190936601A0936701B0936801AF
:10080000BF91AF919F918F913F912F910F900FBE0C
:100810000F901F9018953FB7F894809165019091C3
:100820006601A0916701B091680126B5A89B05C03B
:100830002F3F19F00196A11DB11D3FBF6627782FEC
:10084000892F9A2F620F711D811D911D42E0660F45
:10085000771F881F991F4A95D1F708958F929F920D
:10086000AF92BF92CF92DF92EF92FF926B017C0129
:100870000E940B044B015C01C114D104E104F1049A
:10088000F1F00E94D4080E940B04681979098A09C2
:100890009B09683E73408105910570F321E0C21AFF
:1008A000D108E108F10888EE880E83E0981EA11CAB
:1008B000B11CC114D104E104F10429F7DDCFFF908C
:1008C000EF90DF90CF90BF90AF909F908F90089562
:1008D000789484B5826084BD84B5816084BD85B51B
:1008E000826085BD85B5816085BDEEE6F0E08081E2
:1008F00081608083E1E8F0E0108280818260808303
:10090000808181608083E0E8F0E080818160808385
:10091000E1EBF0E0808184608083E0EBF0E08081B7
:1009200081608083EAE7F0E0808184608083808159
:100930008260808380818160808380818068808301
:100940001092C10008958E3008F08E50877020916B
:10095000240190E4299F90011124822B80937C0034
:1009600080917A00806480937A0080917A0086FD7D
:10097000FCCF809178002091790090E0922B08952F
:100980001F93CF93DF93182FEB0161E00E9448057E
:10099000209711F460E004C0CF3FD10539F461E045
:1009A000812FDF91CF911F910C948105E12FF0E011
:1009B000E859FF4FE491E330F9F048F4E130B9F041
:1009C000E230A1F584B5806284BDC8BD34C0E73093
:1009D000E9F0E83019F1E43049F580918000806257
:1009E00080938000D0938B00C0938A0024C084B58C
:1009F000806884BDC7BD1FC08091800080688093DF
:100A00008000D0938900C093880015C08091B00009
:100A100080688093B000C093B3000DC08091B00097
:100A200080628093B000C093B40005C0C038D10587
:100A30000CF0B5CFAFCFDF91CF911F9108958330E8
:100A400081F028F4813099F08230A1F00895873048
:100A5000A9F08830B9F08430D1F4809180008F7D86
:100A600003C0809180008F7780938000089584B5C3
:100A70008F7702C084B58F7D84BD08958091B000CA
:100A80008F7703C08091B0008F7D8093B000089570
:100A9000CF93DF9390E0FC01E458FF4F2491FC01D9
:100AA000E057FF4F8491882349F190E0880F991F08
:100AB000FC01E854FF4FA591B49182559F4FFC0172
:100AC000C591D4919FB7611108C0F8948C9120957D
:100AD00082238C93888182230AC0623051F4F89477
:100AE0008C91322F309583238C938881822B88833D
:100AF00004C0F8948C91822B8C939FBFDF91CF918F
:100B000008950F931F93CF93DF931F92CDB7DEB756
:100B1000282F30E0F901E859FF4F8491F901E4589A
:100B2000FF4F1491F901E057FF4F04910023C9F0E2
:100B3000882321F069830E941F056981E02FF0E07E
:100B4000EE0FFF1FE255FF4FA591B4919FB7F894A8
:100B50008C91611103C01095812301C0812B8C936E
:100B60009FBF0F90DF91CF911F910F910895CF9369
:100B7000DF93282F30E0F901E859FF4F8491F90104
:100B8000E458FF4FD491F901E057FF4FC491CC23B3
:100B900091F081110E941F05EC2FF0E0EE0FFF1F76
:100BA000EC55FF4FA591B4912C912D2381E090E05D
:100BB00021F480E002C080E090E0DF91CF910895C1
:100BC000FC01818D228D90E0805C9F4F821B9109FA
:100BD0008F7399270895FC01918D828D981731F0BC
:100BE000828DE80FF11D858D90E008958FEF9FEFC6
:100BF0000895FC01918D828D981761F0828DDF013F
:100C0000A80FB11D5D968C91928D9F5F9F73928FFF
:100C100090E008958FEF9FEF08958DE797E0892B7F
:100C200049F080E090E0892B29F00E947D07811136
:100C30000C9400000895FC01848DDF01A80FB11D04
:100C4000A35ABF4F2C91848D90E001968F73992702
:100C5000848FA689B7892C93A089B1898C918064EF
:100C60008C93938D848D981306C00288F389E02DB0
:100C700080818F7D80830895CF93DF93EC01888DF1
:100C80008823C9F0EA89FB89808185FD05C0A88990
:100C9000B9898C9186FD0FC00FB607FCF5CF808116
:100CA00085FFF2CFA889B9898C9185FFEDCFCE0160
:100CB0000E941B06E7CFDF91CF910895CF92DF927C
:100CC000FF920F931F93CF93DF931F92CDB7DEB7A1
:100CD0006C0181E0D60158968C9358975B969C9155
:100CE0005B975C968C915C97981307C05096ED913A
:100CF000FC915197808185FD2EC0F601038D10E097
:100D00000F5F1F4F0F731127F02EF601848DF8121D
:100D100011C00FB607FCF9CFD6015096ED91FC91AA
:100D20005197808185FFF1CFC60169830E941B0620
:100D30006981EBCF838DE80FF11DE35AFF4F60838C
:100D4000D6015B960C935B975296ED91FC9153976D
:100D5000808180620CC0D6015696ED91FC91579728
:100D600060835096ED91FC915197808180648083DF
:100D700081E090E00F90DF91CF911F910F91FF9054
:100D8000DF90CF900895BF92CF92DF92EF92FF92C3
:100D9000CF93DF93EC016A017B01B22EE889F989D8
:100DA00082E08083411581EE580761057105A1F04D
:100DB00060E079E08DE390E0A70196010E94880A47
:100DC0002150310941095109569547953795279585
:100DD000211580E1380798F0E889F989108260E8E8
:100DE00074E88EE190E0A70196010E94880A2150E4
:100DF0003109410951095695479537952795EC8555
:100E0000FD853083EE85FF852083188EEC89FD8972
:100E1000B082EA89FB89808180618083EA89FB89CD
:100E2000808188608083EA89FB89808180688083F3
:100E3000EA89FB8980818F7D8083DF91CF91FF904C
:100E4000EF90DF90CF90BF9008951F920F920FB652
:100E50000F9211242F938F939F93EF93FF93E09121
:100E60007901F0917A018081E0917F01F091800118
:100E700082FD12C09081809182018F5F8F732091DB
:100E80008301821751F0E0918201F0E0E759FE4FB3
:100E9000958F8093820101C08081FF91EF919F9196
:100EA0008F912F910F900FBE0F901F9018951F924A
:100EB0000F920FB60F9211242F933F934F935F938E
:100EC0006F937F938F939F93AF93BF93EF93FF9312
:100ED00089E691E00E941B06FF91EF91BF91AF91CF
:100EE0009F918F917F916F915F914F913F912F9142
:100EF0000F900FBE0F901F90189589E691E00E9409
:100F0000E00521E0892B09F420E0822F089510925A
:100F10006C0110926B0188EE93E0A0E0B0E080934A
:100F20006D0190936E01A0936F01B093700189E2FF
:100F300091E090936A018093690185EC90E0909331
:100F400076018093750184EC90E090937801809312
:100F5000770180EC90E090937A018093790181ECA5
:100F600090E090937C0180937B0182EC90E09093E1
:100F70007E0180937D0186EC90E0909380018093C8
:100F80007F011092820110928301109284011092CD
:100F900085010895CF92DF92EF92FF920F931F93F6
:100FA000CF93DF937C016A01EB0100E010E00C15A8
:100FB0001D0571F06991D701ED91FC910190F081CF
:100FC000E02DC7010995892B19F00F5F1F4FEFCF57
:100FD000C801DF91CF911F910F91FF90EF90DF90AB
:100FE000CF9008956115710581F0DB010D9000200F
:100FF000E9F7AD0141505109461B570BDC01ED915A
:10100000FC910280F381E02D099480E090E0089546
:10101000DC01ED91FC910190F081E02D099465E3F4
:1010200071E00C94F2078F929F92AF92BF92DF9281
:10103000EF92FF920F931F93CF93DF93CDB7DEB75D
:10104000A1970FB6F894DEBF0FBECDBF7C01F42F81
:10105000D52ECB0119A2223008F42AE08E010F5DB3
:101060001F4F822E912CA12CB12C6F2F7D2DA5010D
:1010700094010E94880AF22FD32ECA01015011094F
:101080006A3014F4E0E301C0E7E3E60FD801EC9323
:10109000232B242B252B49F7B801C7010E94F20707
:1010A000A1960FB6F894DEBF0FBECDBFDF91CF91F2
:1010B0001F910F91FF90EF90DF90BF90AF909F90A6
:1010C0008F900895CF92DF92EF92FF920F931F932C
:1010D000CF93DF93EC016A017B012115310579F48F
:1010E000E881F9810190F081E02D642FDF91CF91AB
:1010F0001F910F91FF90EF90DF90CF9009942A30CD
:101100003105E9F477FF1AC06DE20E9408088C01EE
:1011100044275527BA014C195D096E097F092AE059
:10112000CE010E941308800F911FDF91CF911F9174
:101130000F91FF90EF90DF90CF9008952AE0B701D4
:10114000A601CE01DF91CF911F910F91FF90EF90FB
:10115000DF90CF900C9413080F931F93CF93DF93DE
:10116000EC019A01AB01662757FD6095762F0E942E
:1011700062088C01CE010E940F08800F911FDF9141
:10118000CF911F910F91089508950E9468040E94C5
:10119000C4080E948C00CDE0D6E00E94F0002097A9
:1011A000E1F30E940D06F9CF08955058BB27AA27F6
:1011B0000ED00DC1FED030F003D120F031F49F3FAE
:1011C00011F41EF4F3C00EF4E095E7FBE9C0E92F3B
:1011D0000FD180F3BA17620773078407950718F0D9
:1011E00071F49EF527C10EF4E0950B2EBA2FA02DB9
:1011F0000B01B90190010C01CA01A0011124FF27C4
:10120000591B99F0593F50F4503E68F11A16F040BE
:10121000A22F232F342F4427585FF3CF46953795BD
:101220002795A795F0405395C9F77EF41F16BA0B82
:10123000620B730B840BBAF09150A1F0FF0FBB1F30
:10124000661F771F881FC2F70EC0BA0F621F731F79
:10125000841F48F4879577956795B795F7959E3FD6
:1012600008F0B3CF9395880F08F09927EE0F979564
:101270008795089571D008F481E0089504D06894AA
:10128000B111D9C00895BCD088F09F5790F0B92F04
:101290009927B751A0F0D1F0660F771F881F991FCB
:1012A0001AF0BA95C9F712C0B13081F0C3D0B1E0DD
:1012B0000895C0C0672F782F8827B85F39F0B93FED
:1012C000CCF3869577956795B395D9F73EF49095CD
:1012D0008095709561957F4F8F4F9F4F0895E8944B
:1012E00009C097FB3EF490958095709561957F4F6E
:1012F0008F4F9F4F9923A9F0F92F96E9BB2793951C
:10130000F695879577956795B795F111F8CFFAF42B
:10131000BB0F11F460FF1BC06F5F7F4F8F4F9F4F5C
:1013200016C0882311F096E911C0772321F09EE8BA
:10133000872F762F05C0662371F096E8862F70E020
:1013400060E02AF09A95660F771F881FDAF7880FFA
:101350009695879597F90895990F0008550FAA0B50
:10136000E0E8FEEF16161706E807F907C0F01216B8
:101370001306E407F50798F0621B730B840B950BBB
:1013800039F40A2661F0232B242B252B21F4089510
:101390000A2609F4A140A6958FEF811D811D0895AD
:1013A00097F99F6780E870E060E008959FEF80EC18
:1013B000089500240A9416161706180609060895BB
:1013C00000240A9412161306140605060895092E21
:1013D0000394000C11F4882352F0BB0F40F4BF2B90
:1013E00011F460FF04C06F5F7F4F8F4F9F4F0895D0
:1013F00057FD9058440F551F59F05F3F71F04795C6
:10140000880F97FB991F61F09F3F79F087950895AA
:10141000121613061406551FF2CF4695F1DF08C0C9
:10142000161617061806991FF1CF869571056105E6
:1014300008940895E894BB2766277727CB0197F98E
:1014400008958ADF08F48FEF08950BD0C0CFB1DF85
:1014500028F0B6DF18F0952309F0A2CFA7CF11240A
:10146000EACFC6DFA0F3959FD1F3950F50E0551F4B
:10147000629FF001729FBB27F00DB11D639FAA27E9
:10148000F00DB11DAA1F649F6627B00DA11D661F38
:10149000829F2227B00DA11D621F739FB00DA11D59
:1014A000621F839FA00D611D221F749F3327A00D13
:1014B000611D231F849F600D211D822F762F6A2FAF
:1014C00011249F5750408AF0E1F088234AF0EE0F34
:1014D000FF1FBB1F661F771F881F91505040A9F741
:1014E0009E3F510570F05CCFA6CF5F3FECF3983E76
:1014F000DCF3869577956795B795F795E7959F5FA8
:10150000C1F7FE2B880F911D9695879597F9089541
:10151000A1E21A2EAA1BBB1BFD010DC0AA1FBB1FF7
:10152000EE1FFF1FA217B307E407F50720F0A21B69
:10153000B30BE40BF50B661F771F881F991F1A94D6
:1015400069F760957095809590959B01AC01BD0100
:10155000CF010895EE0FFF1F0590F491E02D09943F
:04156000F894FFCF2D
:101564006F12833A00004041CDCC4C3E0300020090
:1015740001000700060009000A00020004000C0034
:101584000300080001000000005E06CA07E005F938
:1015940005EB053C060D0A006E616E00696E66007F
:0615A4006F7666002E00C8
:00000001FF
